:020000040800F2
:10000000703F002005010008832E000843270008E8
:10001000812E0008550A000855370008000000002E
:100020000000000000000000000000005F31000838
:100030002F0C0008000000005D310008613100084D
:100040001F0100081F0100081F0100081F01000810
:100050001F0100081F0100081F0100081F01000800
:100060001F0100081F0100081F0100081F010008F0
:100070001F0100081F0100081F0100081F010008E0
:100080001F0100081F0100081F0100081F010008D0
:100090001F0100081F0100081F0100081F010008C0
:1000A0001F0100081F0100081F0100081F010008B0
:1000B000553200081F010008E93200081F0100083E
:1000C0001F0100081F0100081F0100081F01000890
:1000D0001F01000879350008853500081F01000858
:1000E0001F0100081F0100081F010008DFF810D0E1
:1000F00000F0B4FB00480047014C0008AFF300805B
:10010000703F00200648804706480047FEE7FEE7AC
:10011000FEE7FEE7FEE7FEE7FEE7FEE7FEE7FEE7B7
:1001200053320008ED000008202A04DB203A21FAAF
:1001300002F00021704721FA02F3D040C2F1200200
:100140009140084319467047A0F14101192900D890
:1001500020307047D2B201E000F8012B491EFBD2DB
:1001600070470022F6E710B513460A4604461946C2
:10017000FFF7F0FF204610BDCAB2401E10F8011F65
:100180008A4202D00029F9D100207047421C10F8A1
:10019000011B0029FBD1801A704730B505460020AD
:1001A000034600E05B1C934205D2EC5CC85C201A5D
:1001B00001D1002CF6D130BD2DE9FE4F804681EAF9
:1001C0000300C00F0C46009021F0004123F00045D1
:1001D000B8EB0200A94105D24046214690461C4694
:1001E0000B46024623F00040104347D0270DC7F3CB
:1001F0000A00C3F30A510290401A019040286BDABA
:10020000C3F3130040F4801B0098924620B10023F2
:10021000D2EB030A63EB0B0B01985946C0F1400285
:10022000504600F036FA06460D4650465946019AA9
:1002300000F03EFA10EB08006141002487EA1152F9
:1002400084EAE7731A4340D0009A62B3019A012A04
:100250004FEA075215DC001B61EB02014FF0004230
:1002600002EA0752CDE90042001C41F580113246F6
:100270002B4600F075FA03B0BDE8F08F40462146EA
:10028000F9E7001B61EB0201001C41F58013001827
:100290005B412018A2F5001747EB030140EAD57037
:1002A000B6196D4111E06D084FEA360645EAC07592
:1002B0004FEA0752001B61EB0201001C41F580115F
:1002C00049084FEA30000019514132462B4603B02D
:1002D000BDE8F04F00F035BA00980122400000233D
:1002E000D0EB020263EBE073009821464FEAE07422
:1002F000B8EB000061EB0401E9E783F000435BE742
:1003000081F0004158E72DE9FE4F81EA030404F033
:10031000004421F0004100944FF0000B23F0004313
:1003200050EA01045ED052EA03045BD0C3F30A54DE
:10033000C1F30A552C44A4F2F3340194A0FB0254F7
:10034000C1F3130141F48011C3F3130343F4801389
:1003500001FB024400FB034E840A970A44EA8154DD
:1003600047EA8357A4FB076802958D0A05FB0785BA
:100370004FEA932C04FB0C542705029D4FEA0658C4
:1003800047EA1637B5EB08056EEB070C870E920EA1
:1003900047EA811742EA8312A7FB0201B6EB0B0181
:1003A00064EB00042B0D43EA0C335E1844EB1C5045
:1003B000DA465146E7FB0201C5F313044FEA0B335B
:1003C00043EA14534FEA0432019C43EA0603A4F1C2
:1003D0000C040294009CCDE900B400F0C1F903B014
:1003E000BDE8F08F00200146F9E72DE9F04D81EAE4
:1003F000030404F0004B21F0004514464FF0000ABE
:1004000023F0004150EA050220D054EA01021DD039
:10041000C5F30A570246C5F31303C1F31300C1F332
:100420000A5640F4801543F48013A7EB0608101B0E
:10043000D64608F2FD3873EB050002D308F1010837
:1004400001E092185B41B8F1000F03DA0020014689
:10045000BDE8F08D00204FF48011064684460EE082
:10046000171B73EB050705D3121B63EB050306434C
:100470004CEA010C49084FEA300092185B4150EAFF
:100480000107EDD152EA030012D082EA040083EAA8
:100490000501084305D0101BAB4106D20122002301
:1004A00006E000224FF0004302E06FF0010253101B
:1004B0001AEB06004CEB085110EB0A0041EB0B0164
:1004C000BDE8F04D00F03DB90EB5C10F80EAE07017
:1004D0000844CA07002140F233438DE80E000A4663
:1004E0000B4600F03DF903B000BD0EB540F23341BC
:1004F00002910021CDE900110A460B4600F030F9C7
:1005000003B000BD00F0004220F00040C10DC0F378
:10051000160040F400007F2901DA00207047962978
:1005200003DCC1F19601C84001E096398840002AF9
:10053000F4D04042704770B5C1F30A5201F0004553
:100540000024C1F3130140F2FF3341F480119A42B9
:1005500001DA002070BD40F233439A42A2F23342E6
:1005600003DC5242FFF7E0FD00E090402C43F1D065
:10057000404270BD00F0004230F000400AD0C10D92
:1005800001F56071C0F3160042EA0151C20840074C
:1005900011437047002001467047000030B5041E2B
:1005A00071F1000404DB4FF00044404264EB0101B0
:1005B000141E73F1000405DB1C464FF00043524249
:1005C00063EB0403994208BF904230BD01F0004341
:1005D00030B421F0004150EA010206D00A0DA2F524
:1005E0006072C1F31301002A02DC30BC00207047A6
:1005F000440F44EAC104C100E01830BC00EBC25013
:1006000000F068B830B50B460146002020220124D6
:1006100009E021FA02F59D4205D303FA02F5491BD0
:1006200004FA02F52844151EA2F10102F1DC30BDE6
:100630002DE9F05F0546002092469B468846064617
:10064000814640241BE02846414647462246FFF7A4
:100650006BFD53465A46C01A914110D311461846B5
:10066000224600F016F82D1A67EB01084F46224685
:100670000120002100F00DF817EB00094E41201E6B
:10068000A4F10104DFDC484631462A464346BDE872
:10069000F09F202A04DB203A00FA02F10020704784
:1006A0009140C2F1200320FA03F3194390407047B0
:1006B000202A06DBCB17203A41FA02F043EAE07326
:1006C00006E041FA02F3D040C2F120029140084313
:1006D000194670470029A8BF7047401C490008BF51
:1006E00020F00100704710B4B0FA80FC00FA0CF062
:1006F00050EA010404BF10BC704749B1CCF120049A
:1007000021FA04F411FA0CF118BF01212143084326
:10071000A3EB0C01CB1D4FEA00614FEA102042BF52
:10072000002010BC704700EBC35010440029A4BF48
:1007300010BC7047401C490008BF20F0010010BCED
:10074000704710B5141E73F1000408DA401C41F123
:10075000000192185B411A4301D120F0010010BD45
:100760002DE9F04D92469B4611B1B1FA81F202E0BB
:10077000B0FA80F220329046FFF78BFF04460F4616
:1007800040EA0A0041EA0B0153465A46084313D097
:10079000114653EA010019D0C8F140025046FFF754
:1007A000C3FC05460E46504659464246FFF771FFC8
:1007B000084305D0012004E020463946BDE8F08D0D
:1007C0000020054346EAE0762C4337430A98630548
:1007D000E40AA0EB08000022FD0A44EA47540A306C
:1007E00002D500200146E9E7010510196941DDE95C
:1007F000084500196941BDE8F04DA2E770B521F048
:10080000004303430CD0C1F30A550024D5EB040583
:1008100064EB0403D617AD1AB34102DB0020014696
:1008200070BD201841EB025170BDC1F30A52C1F3F3
:10083000130140F2FF3341F480119A4202DA0020A2
:100840000146704740F233439A42A2F2334202DC3F
:100850005242FFF769BCFFF71CBF0000064C074D72
:1008600006E0E06840F0010394E807009847103480
:10087000AC42F6D3FFF73EFC8C660008AC6600087D
:100880002DE9F04D00231A461B1A8A4103DB002094
:100890000146BDE8F08DC1F30A52C1F3130141F4E2
:1008A00080154FF0000BD10702D100186D41521E88
:1008B0000027044640F2FF11384601EB620A3E462B
:1008C0008046024600204FF48011FFF72DFCC2192C
:1008D0007141BB1846EB0100B4EB030C75EB000C47
:1008E00004D3E41A65EB000517460E46241908F1F7
:1008F00001006D4180463428E3DDF91946EB06001E
:10090000091BA84103D24FF0FF32134601E0002239
:1009100013461BEB070046EB0A51BDE8F04DFFF70D
:1009200010BF70B58D1810F8014B14F0030201D1FF
:1009300010F8012B231106D110F8013B03E010F849
:10094000016B01F8016B521EF9D1ABB110F8012B0C
:1009500004F00C048A1A0C2C03D0A2EB84129B1C0A
:1009600008E010F8014BA2EB0422F8E712F8014B63
:1009700001F8014B5B1EF9D5A942D4D3002070BD0C
:1009800070B5044600688168C943C90717D18168FA
:1009900021F00101816000F0EBFD05460AE000BF97
:1009A00000F0E6FD401B022804D920688068C0439F
:1009B000C00706D020688068C043C007F0D0002080
:1009C00070BDA06A40F01000A062E06A40F0010033
:1009D000E062012070BD0000F8B5002604460096D4
:1009E00000688168C943C9072DD0816841F00101C1
:1009F0008160164816490068B0FBF1F000E0401E27
:100A000000900028FBD100F0B3FD054616E000BFC2
:100A100000F0AEFD401B022810D920688068C0435A
:100A2000C0070BD0A06A40F01000A062E06A40F05E
:100A30000100E06284F824600120F8BD206880682D
:100A4000C043C007E4D10020F8BD0000180000201A
:100A500040420F00FEE7000018B1012803D000203B
:100A60007047024870470248704700000038014054
:100A70000044004010B528B1012805D000F0D6F997
:100A8000002010BD014810BD014810BD900E00208F
:100A9000BC1E0020012000F00DB8000010B502219E
:100AA000034800F05BFD012800D0002010BD0000CD
:100AB00000080140044B08B1012200E0002202219D
:100AC000184600F050BD0000000801402DE9F05F1D
:100AD00082468B460020FFF7EDFF142003F06CFBED
:100AE00001220221204800F03EFD3C2003F07CFB67
:100AF000FFF7D4FF4FF0FF3908B11CA007E04FF417
:100B00007A742146012000F080F818B11DA002F08F
:100B100023FE26E02146002000F077F808B121A04E
:100B2000F5E700F04FF8C5B200F04CF800F0FF0810
:100B300000F048F8C4B200F045F8C7B200F042F83F
:100B4000C6B20120FFF7B6FF05EB08002044384489
:100B5000B04206D1CAF800500020CBF80040BDE8F2
:100B6000F09F4846FBE700000008014064687431CC
:100B700031206E6F742061636B2C20657272210AC4
:100B80000D0000006468743131207761697420665B
:100B90006F722061636B20686967682065727221DB
:100BA0000A0D000064687431312077616974206631
:100BB0006F722064617461206C6F7720657272219E
:100BC0000A0D00002DE9F04100242546671E4FF470
:100BD0007A763146012000F018F870B9282003F029
:100BE00003FB6400FFF75AFF012801D144F0010420
:100BF0003146002000F009F810B13846BDE8F08118
:100C00006D1C082DE5DB2046F8E770B50C4605465F
:100C100008E0FFF743FFA84201D1002070BD01208A
:100C200003F0E2FA641EF4D24FF0FF3070BD70475B
:100C300010B5144690B00B46024608A1684602F073
:100C40009BFD684600F0B4F8214609A000F0C2F808
:100C5000012800D0002010B010BD000041542B43EB
:100C6000574A41503D222573222C22257322000031
:100C70004F4B0D0A000000002DE9F0412848417853
:100C800000294AD0274D4FF0000880F8018095F8E0
:100C9000800004283BD303222C21284604F072F85C
:100CA0000446014620A002F057FD204603F0D8FE7E
:100CB00004001FD01FA103F0B7FE077D1EA1204630
:100CC00003F0B2FE067D012F0DD01DA002F044FD01
:100CD0000021012001F0AEFF012E09D05FF00000DD
:100CE00002F030FA0DE019A002F036FD0121F0E724
:100CF0000120F5E718A002F02FFD80210948FFF739
:100D000030FA204603F06CFE204603F051FF8021AC
:100D10000448FFF726FA85F88080BDE8F0810000DE
:100D20001C000020580D0020726573756C74203D06
:100D3000202573004C454400616C65726D00000015
:100D40006C6564206F66660D0A0000006C656420A7
:100D50006F6E0D0A000000004A534F4EBDE2CEF602
:100D6000B4EDCEF3A3A10D0A0000000010B50A49AE
:100D700004460020487040F22F11084A012003F079
:100D8000BBFD074991F88000802804D20C5411F86B
:100D9000800F401C087010BD1C000020A50D00082D
:100DA000580D002001490120487070471C000020A8
:100DB00010B50446FFF7EAF982B22146012003F09C
:100DC000CBFE0222BDE8104001A1012003F0C4BE09
:100DD0000D0A0000F8B50E4607460024FFF7D6F9C5
:100DE0000546FF280BD866B13146032003F0BAFD53
:100DF00003F01AFA3EB1032003F0CCF918B1002039
:100E0000F8BD03F011FA6946012003F07EFE0028C8
:100E1000EED09DF80000395D814205D1641CA4B27A
:100E2000AC42E5D10120F8BD0024E1E772B6FEE74F
:100E3000F8B500250446009590F8240001280BD051
:100E4000012084F824002046FFF79AFD2046FFF792
:100E5000C3FD060002D050E00220F8BDA06A20F4D5
:100E6000885040F00200A062022000F06BFE25498D
:100E70000968B1FBF0F0400000E0401E009000283F
:100E8000FBD12068816841F00801816000F070FBAF
:100E9000074608E000F06CFBC01B0A2803D9206855
:100EA0008068000715D4206880680007F2D42068A5
:100EB000816841F00401816000F05AFB074612E0AE
:100EC00000F056FBC01B0A280DD920688068400737
:100ED00009D5A06A20F0020040F01000A06284F85A
:100EE00024500120F8BD206880684007E8D4A06A3B
:100EF00020F0020040F00100A06284F82450304647
:100F0000F8BD000018000020F8B50024009490F807
:100F100024202546012A12D0012280F824204A6884
:100F20001F23072A0DD20668776B521E02EB82023E
:100F300093409F430B6893401F43776319E002205F
:100F4000F8BD06680D2A0AD2376BD21F02EB820267
:100F500093409F430B6893401F43376309E0F76A50
:100F60000D3A02EB820293409F430B6893401F436C
:100F7000F7620A68072306680A2A0AD3F7680A3A5A
:100F800002EB420293409F438B6893401F43F760FC
:100F900008E0376902EB420293409F438B6893401D
:100FA0001F4337610A68102A01D0112A20D1124B41
:100FB00002689A4217D193681B0219D4936843F4CC
:100FC000000393600968102912D10C490C4A096882
:100FD000B1FBF2F101EB8101490000E0491E0091F3
:100FE0000029FBD104E0816A41F0200181620124E3
:100FF00080F824502046F8BD00240140180000204D
:1010000040420F000068C06C704700002DE9F041BD
:101010004FF0000704003D467ED0A06A002628B9A4
:10102000E66284F82460204600F07EF82046FFF750
:10103000A7FCA16AC90600D420B1A06A40F0100044
:10104000A06269E0A16A21F4885141F00201A16225
:101050006268E169237B0A4347EA43010A43A168C6
:101060004FF48077B94209D0012907D05FF0000121
:1010700094F814C0BCF1010F02D00AE03946F7E73A
:10108000F3B1A36A43F02003A362E36A43F00103D0
:10109000E3622368D3F804C02CF4694C4CEA010CD9
:1010A000C3F804C021688B68DFF870C003EA0C0342
:1010B00013438B60A168B9420BD0012909D00CE021
:1010C000DFF85CC0A3690CEB43330B4343F40061CE
:1010D000DFE7218A0D05A5F580152168CB6A23F489
:1010E00070032B43CB62216889680E4B19409142F3
:1010F00008D1E662A16A21F0020141F00101A1627A
:10110000BDE8F081A06A20F0020040F01000A0626B
:10111000E06A40F00100E0620120F1E7FDF7E1FF45
:1011200000E0FFFFFE0E1FFF00B585B0002100911B
:1011300001910291039100680E49884218D10E482E
:10114000816941F400718161816901F40071049148
:10115000816941F0040181618069694600F0040001
:1011600004900820009003200190044800F006F944
:1011700005B000BD002401400010024000080140FD
:101180002DE9F84300270D460446009700F0F0F9DA
:10119000804620688168C90508D5A06A40F0200013
:1011A000A06284F824700120BDE8F8834168C90575
:1011B00003D4C06A10F4700F2AD0022000F0C2FCE1
:1011C0003B490968B1FBF0F62068036939490B42D5
:1011D0004FEA61014FEAA1121FD1C3684FEA611CB7
:1011E00013EA0C0F19D103690B4225D1C0681042D4
:1011F00022D1142023E0681C0AD02DB100F0B8F9E8
:10120000A0EB0800A84203D920680068800725D514
:10121000206800688007EED52DE003690B4202D1FB
:10122000C168114206D0026923490A4206D1C0684A
:10123000084203D1542002E0292000E0FC2046436C
:10124000009816E0681C11D02DB100F091F9A0EBC8
:101250000800A8420AD90098B04207D2A06A40F01C
:101260000400A06284F8247003209DE70098401CCD
:101270000090B042E6D321686FF012000860A06AC7
:1012800040F40070A06220688068C0F342400728E4
:101290000CD1207B50B9A06A20F48070A062A06AB3
:1012A000C00403D4A06A40F00100A06200207BE7E4
:1012B00018000020244992244992240070B5044665
:1012C00090F8240001280DD0012084F82400204645
:1012D000FFF782FB02004FF0000005D084F82400E5
:1012E000104670BD022070BDA16A40F201239943EF
:1012F00041F48071A1621F4D23681F49AB4218D190
:101300000E6816F4702F14D0A66A46F48016A662F2
:101310000E68760505D5A66A26F4005646F4805672
:10132000A662A66AF6040AD5E66A26F00606E66212
:1013300006E0A66A26F48016A6625E68E9E7E06227
:1013400084F824006FF00200186020688368C3F3FB
:101350004243072B05D1A84208D1096811F4702F28
:1013600004D0816841F480118160B9E7816841F45B
:10137000A001F9E700280140042401402DE9F84FBD
:10138000DFF8B8910024A9F1040B23460F2709F1D7
:10139000040AABF1040EC9E00125A5402A40AA4287
:1013A0007DD1674ED1F804C0ACEB0608B44532D00D
:1013B00014DCBCF1030F3AD009DCBCF1000F2AD0D9
:1013C000BCF1010F1CD0BCF1020F31D11DE0BCF10A
:1013D000110F17D0BCF1120F2AD119E0B8F5881FF0
:1013E00019D006DCB8F5803F15D0B8F5801F1FD1A5
:1013F00011E0B8F5001F0ED0B8F5041F18D10AE0AF
:10140000CB6815E0CB681B1D12E0CB6808330FE0FA
:10141000CB680C330CE08B682BB1012B4FF0080329
:1014200003D0456104E0042302E0056100E00023ED
:10143000FF2A01D8064601E000F104064FEA8405C0
:1014400001D9A5F12005D6F8008007FA05FC28EAA5
:101450000C0803FA05F548EA0508C6F800804D684F
:10146000ED0062D5374DAE6946F00106AE61AD695B
:1014700024F0030605F001050095334D06EB050C3D
:10148000DCF80850A607360F07FA06F825EA080523
:10149000DFF8B880404503D14FF0000817E044E082
:1014A000DFF8AC80404502D14FF001080FE0DFF8D3
:1014B000A480404502D14FF0020808E0DFF8988090
:1014C000404502D14FF0030801E04FF0040808FA4C
:1014D00006F848EA0508CCF808804D68D9F800609D
:1014E000ED024D4601D5164300E096432E604D684F
:1014F000DAF80060AD02554601D5164300E0964388
:101500002E604D68DBF80060AD035D4601D51643E3
:1015100000E096432E604D68DEF80060ED037546EE
:1015200001D5164300E096432E60641C0D682A46E0
:10153000E5407FF431AFBDE8F88F000008040140BA
:10154000000011100010024000000140000801409E
:10155000000C014000100140001401408068084068
:1015600000D0012070470AB1016170470904FBE710
:1015700001488068704700000C00002070B504002E
:1015800025D094F83D00002520B984F83C50204631
:1015900000F0E6F9242084F83D002068016821F07D
:1015A000010101602068016841F400410160206888
:1015B000016821F40041016000F0CCFB4D4A6168F4
:1015C000914201D84C4900E04C49884201D20120A7
:1015D00070BD4B492368B0FBF1F15E6826F03F0611
:1015E0000E435E606368934206D94FF49673594385
:1015F0004FF47A73B1FBF3F12368491C1E6A26F09D
:101600003F06314319626168914210D84900401E7B
:10161000B0FBF1F2521CC2F30B02042A01D20420E7
:1016200022E0B0FBF1F0401CC0F30B001CE0A2680C
:10163000F2B301EBC10303EB0116431EB3FBF6F358
:101640005B1C43F480431B0549D092B301EBC102FC
:1016500002EB0111401EB0FBF1F0401CC0F30B0087
:1016600040F4804040F400402168CA694CF6FF73A2
:101670009A431043C861D4E9071001432068026807
:1016800022F0C00211430160D4E903010143206844
:10169000826848F2FF339A4311438160D4E905011F
:1016A00008432168CA6822F0FF021043C86001E0C5
:1016B0000EE016E02068016841F001010160256438
:1016C000202084F83D00256384F83E50002070BD42
:1016D00001EB4106431EB3FBF6F35B1CB3E70120AD
:1016E000C2E701EB4101401EB0FBF1F0401CC0F32A
:1016F0000B00B7E7A086010080841E0000093D00B2
:1017000040420F002DE9F84F1F4690468A46044696
:10171000DDF82890FFF72CFF054694F83D002028BF
:101720007FD11923012240492046009501F0F0F8AD
:10173000002876D194F83C00012872D0012084F86A
:101740003C0020680168C90703D1016841F001012C
:1017500001602068016821F400610160212084F8A3
:101760003D00102084F83E0000262664C4F8248042
:101770006785608D20852D48E0622B464A4651469C
:10178000204600F0F7FF90B9206841698069009019
:1017900036E02A464946204601F060F950B1206CF7
:1017A000042804D12068016841F40071016001201F
:1017B000BDE8F88F606A216800780861606A401CA3
:1017C0006062618D491E6185218D491E89B2218526
:1017D00022685369DB435B070BD451B10078106179
:1017E000606A401C6062608D401E6085208D401ED6
:1017F00020852A464946204601F05EF80028CED1D1
:10180000208D0028C5D154F83D0B016841F40071CA
:101810000160202004F81E09E67766770020C7E7FC
:10182000FFE70220C4E70000020010000000FFFFF5
:101830002DE9FF4F83B09A46DDE9119793460446A0
:10184000DDF84080FFF794FE054694F83D0020281F
:101850007FD11923012240492046009501F058F814
:10186000002876D194F83C00012872D0012084F839
:101870003C0020680168C90703D1016841F00101FB
:1018800001602068016821F400610160212084F872
:101890003D00402084F83E0000262664C4F82480E1
:1018A000A4F82A90608D20852C48E062CDE900756F
:1018B00053465A462046049900F0AAFF70B930E01A
:1018C0002A463946204601F0C9F858B1206C042850
:1018D00004D12068016841F400710160012007B063
:1018E000BDE8F08F606A216800780861606A401C7A
:1018F0006062218D491E89B22185628D521E6285EA
:1019000022685369DB435B070BD469B1007810612F
:10191000606A401C6062208D401E2085608D401EE4
:101920006085208D0028CBD12A463946204600F01C
:10193000C3FF0028CAD154F83D0B016841F400717F
:101940000160202004F81E09E67766770020C6E7CC
:10195000FFE70220C3E70000020010000000FFFFC5
:1019600010B586B0002100910191029103910068A9
:101970000F4988421AD10F4CA06940F00800A061BD
:10198000A069694600F008000490C0200090122071
:101990000190032003900848FFF7F0FCE06940F451
:1019A0000010E061E06900F40010049006B010BD82
:1019B0000054004000100240000C014002488168C1
:1019C00002781144816070470C000020074810B570
:1019D000016841F010010160032000F0A1F80F2020
:1019E00000F006F800F050F8002010BD0020024082
:1019F00030B505461F4887B0C16941F00401C16197
:101A0000C06906A900F00400009001A800F082F966
:101A10000498B0B100F09EF940001749174AB0FB96
:101A2000F1F11748491E0260416040F2E73200219F
:101A3000C0E903218160816100F0C2FB040003D092
:101A400015E000F087F9E8E70D4800F00FFC04000E
:101A50000DD11E2000F036F8102D07D200222946A5
:101A60001E2000F03DF80748056000E0012407B0A3
:101A7000204630BD0010024040420F0000080040E8
:101A8000AC040020100000200C4808B5816941F02A
:101A900001018161816901F001010091C16941F099
:101AA0008051C161C06900F08050009004484168D5
:101AB00021F0E06141F00071416008BD001002407A
:101AC00000000140002809DB00F01F0201219140C5
:101AD0004009800000F1E020C0F8001170470000CC
:101AE000F0B40E4B1B680C46C3F30223C3F1070589
:101AF000042D00D90425191D072901D2002300E077
:101B0000DB1E012606FA05F1491E214099409E4040
:101B1000761E16403143F0BC01F056BE0CED00E0DD
:101B2000064900F0070208684FF6FF03184040EA34
:101B30000220034A10430860704700000CED00E0EB
:101B40000000FA0510B501460020234C012922D0DF
:101B5000022939D010291DD161682268D20119D516
:101B60001E48C1F38342C903805C0AD561681B4AE1
:101B7000C1F34041921E515C194AB2FBF1F1484356
:101B800001E0184948436168490203D44000032139
:101B9000B0FBF1F010BD226AC2F30121012903D18B
:101BA000920701D5C80310BD022905D1626A9207C8
:101BB00002D549F6404010BD0329FCD121688903B4
:101BC000F9D54FF2244010BD00F0D4F86168C1F39C
:101BD0008131491C4900DBE700100240585D0008D4
:101BE00000127A0000093D002DE9F0470F4605007C
:101BF00061D0434E306800F00700B84209D2306827
:101C000020F0070038433060306800F00700B84229
:101C100051D128683B4C810712D5400703D5606835
:101C200040F4E06060602878000703D5606840F405
:101C3000605060606068A96820F0F0000843606050
:101C40002878C00728D06868012810D021680228A9
:101C500010D0890700292EDA616821F003010143C1
:101C60006160FFF785FC804641F288390DE021680C
:101C70008903EFE78901EDE7FFF77AFCA0EB0801A4
:101C8000494502D90320BDE8F0876068696800F023
:101C90000C00B0EB810FEFD1306800F00700B842C4
:101CA0000BD9306820F0070038433060306800F00E
:101CB0000700B84201D00120E5E72878400705D5A4
:101CC0006068E96820F4E0600843606028780007F5
:101CD00006D56068296920F4605040EAC100606060
:101CE00000F058F86168084AC1F30311515CC8401C
:101CF0000649086006480068FFF77AFE0020C2E740
:101D00000020024000100240685D0008180000201A
:101D1000100000200F2202600C4A536803F00303F6
:101D20004360536803F0F0038360536803F4E06397
:101D3000C36052684FF4E06303EAD20202610448D0
:101D4000006800F0070008607047000000100240C3
:101D5000002002400448054900684968044AC1F36C
:101D60000221515CC840704718000020001002405A
:101D7000785D00080448054900684968044AC1F3D1
:101D8000C221515CC840704718000020001002407A
:101D9000785D00080E4A51680E4801F00C03042BD0
:101DA00011D0082B0FD10C48C1F38343C903C05C89
:101DB0000AD55168084AC1F34041921E515C054A58
:101DC0005043B0FBF1F070470449484370470000AE
:101DD0000010024000127A00465D000800093D0034
:101DE0002DE9F84F040070D02078C04DC00749D0CD
:101DF0006868C0F38100012807D06868C0F38100DB
:101E0000022809D16868C00306D52868800339D53F
:101E100060680028E7D035E06068B0F5803F0BD0FF
:101E200010B1B0F5A02F11D0286820F480302860C0
:101E3000286820F4802002E0286840F48030286080
:101E4000606890B1FFF794FB06460AE0286840F40A
:101E500080202860F0E700BFFFF78AFB801B642822
:101E600073D828688003F7D50CE0FFF781FB06469E
:101E700005E000BFFFF77CFB801B6428F0D82868D2
:101E80008003F7D420789A4E80074FF001094FF075
:101E9000000839D5686810F00C0F07D06868C0F3E7
:101EA0008100022809D16868C00306D42868800729
:101EB00014D52069012808D110E02069B0B1C6F816
:101EC0000090FFF755FB074605E00AE1FFF750FBDE
:101ED000C01B0228C4D828688007F7D52868616924
:101EE00020F0F80040EAC10028600DE0C6F800804C
:101EF000FFF73EFB074604E0FFF73AFBC01B022852
:101F000023D828688007F7D4207800072CD5794893
:101F1000A169D9B1C0F80090FFF72AFB074604E099
:101F2000FFF726FBC01B02280FD8686A8007F7D589
:101F300071484FF4FA510068B0FBF1F0009000BF17
:101F40000098411E0091FAD20EE080E0C0F80080B7
:101F5000FFF70EFB074604E0FFF70AFBC01B022851
:101F600075D8686A8007F7D42078400760D5E8699B
:101F70000027C00008D4E86940F08050E861E869B3
:101F8000012700F0805000905C480168C90513D417
:101F90000168834641F480710160FFF7E9FA8246E7
:101FA00006E000BFFFF7E4FAA0EB0A0064284ED871
:101FB000DBF80000C005F5D5E06801280AD008B1BB
:101FC000052813D0286A20F001002862286A20F032
:101FD000040002E0286A40F001002862E06841F253
:101FE000883B98B1FFF7C4FA82460BE0286A40F0BC
:101FF00004002862EEE700BFFFF7BAFAA0EB0A017F
:1020000059455AD8286A8007F6D50CE0FFF7B0FA90
:10201000824605E0FFF7ACFAA0EB0A0159454CD81F
:10202000286A8007F6D41FB1E86920F08050E86183
:10203000E06988B36968C1F38101022944D00228AC
:10204000C6F8608004D0FFF793FA044638E034E025
:10205000FFF78EFA074604E0FFF78AFAC01B022852
:102060002BD828688001F7D4206AB0F5803F05D1CD
:102070006868A16820F4003008436860D4E908016A
:102080000843696821F4741108436860C6F86090D9
:10209000FFF76EFA044606E025E000BFFFF768FA96
:1020A000001B022809D828688001F7D51BE000BF73
:1020B000FFF75EFA001B022802D90320BDE8F88F63
:1020C00028688001F4D40EE00128F7D06868226AFD
:1020D00000F48031914204D1616A00F470108842AA
:1020E00001D00120EAE70020E8E7000000100240EC
:1020F000000042428004424218000020007000406C
:102100007047704710B590F83C20012A22D0012278
:1021100080F83C20CA688C6822F4407222434C68E4
:1021200022F4806222430C6822F4006222430C698C
:1021300022F4805222434C6922F400522243C9699E
:10214000002322F480420A4301684A6480F83C304C
:10215000002010BD022010BD70B590F83C20012A6F
:1021600026D0012480F83C40022280F83D200368FC
:102170005A689D6822F070060A6832435A600D4B17
:1021800002689A4208D0B2F1804F05D00A4B9A42B9
:1021900002D00A4B9A4204D1496825F080031943C2
:1021A000916080F83D40002180F83C10084670BDE9
:1021B000022070BD002C01400004004000080040D7
:1021C00010B5040003D094F83D0010B107E00120E1
:1021D00010BD002084F83C00204600F01EF80220CC
:1021E00084F83D00211D206801F084F8012084F866
:1021F000460084F83E0084F83F0084F8400084F8EC
:10220000410084F8420084F8430084F8440084F8D4
:10221000450084F83D00002010BD704790F83D1047
:10222000012901D001207047022180F83D1000688B
:102230000B49884208D0B0F1804F05D00949884247
:1022400002D00949884204D1816801F007010629BA
:1022500003D0016841F001010160002070470000D7
:10226000002C0140000400400008004090F83D10A0
:10227000012901D001207047022180F83D1001683A
:10228000CA6842F00102CA6000680B49884208D05F
:10229000B0F1804F05D00949884202D008498842F0
:1022A00004D1816801F00701062903D0016841F0DB
:1022B0000101016000207047002C01400004004033
:1022C00000080040704770B50446006801694FF08F
:1022D0000005C943890715D4C168C943890711D4CA
:1022E000E91E01610120207720688069800720466F
:1022F00002D0FFF7E7FF04E000F0BEF8204600F050
:1023000063F9257720680169C943490717D4C16873
:10231000C943490713D46FF00401016102202077FB
:102320002068806910F4407F204602D0FFF7CAFF82
:1023300004E000F0A1F8204600F046F92577206877
:102340000169C943090716D4C168C943090712D4F2
:102350006FF008010161042020772068C0698007C0
:10236000204602D0FFF7AEFF04E000F085F82046DB
:1023700000F02AF9257720680169C943C90617D4F6
:10238000C168C943C90613D46FF010010161082068
:1023900020772068C06910F4407F204602D0FFF704
:1023A00091FF04E000F068F8204600F00DF9257771
:1023B00020680169C943C90708D1C168C943C90771
:1023C00004D1891E0161204600F086F92068016968
:1023D000C943090609D4C168C943090605D46FF089
:1023E000800101612046FFF78BFE20680169C94327
:1023F000490609D4C168C943490605D46FF04001B4
:102400000161204600F069F920680169C943890625
:102410000BD4C168C943890607D46FF0200101615C
:102420002046BDE87040FFF76CBE70BD00B585B0BA
:102430000021009101910291039100680B498842AB
:1024400012D10B48816941F00401816180696946BC
:1024500000F0040004904FF480700090022001907E
:1024600003900448FEF78AFF05B000BD002C014030
:102470000010024000080140704770B5044690F813
:102480003C0000260D4601280FD0012084F83C00B6
:102490006AB1042A1DD0082A2FD00C2A3FD0012669
:1024A000002084F83C00304670BD022070BD2068DA
:1024B00000F064FF2068816941F0080181612068B3
:1024C000816921F004018161206881692A691143D1
:1024D00011E0206800F07AFF2068816941F4006112
:1024E00081612068816921F480618161206881694E
:1024F0002A6941EA02218161D2E7206800F092FF57
:102500002068C16941F00801C1612068C16921F0FA
:102510000401C1612068C1692A69114311E0206882
:1025200000F0ACFF2068C16941F40061C16120681E
:10253000C16921F48061C1612068C1692A6941EAE9
:102540000221C161ACE710B5040003D094F83D004E
:1025500010B107E0012010BD002084F83C002046A7
:1025600000F01EF8022084F83D00211D206800F0D4
:10257000C1FE012084F8460084F83E0084F83F0044
:1025800084F8400084F8410084F8420084F8430055
:1025900084F8440084F8450084F83D00002010BD14
:1025A00008B500680649884208D10648816941F4A7
:1025B00000618161806900F40060009008BD000046
:1025C000002C0140001002407047000010B5044686
:1025D000022249B104290ED0082913D094F84100F1
:1025E000012816D0012010BD94F83E000128F9D131
:1025F00084F83E200FE094F83F000128F2D184F8DF
:102600003F2008E094F840000128EBD184F84020F6
:1026100001E084F841200122206800F0A1FE0F496A
:102620002068884203D1426C42F400424264206830
:10263000884208D0B0F1804F05D00949884202D0C5
:102640000849884204D1816801F00701062903D0B6
:10265000016841F001010160002010BD002C014023
:10266000000400400008004030B504460D460068F4
:10267000002200F075FE174B41F2111120688A10FC
:10268000984209D1036A0B4206D1036A134203D16F
:10269000436C23F4004343642068036A0B4206D171
:1026A000016A114203D1016821F00101016001209A
:1026B0003DB1042D08D0082D09D084F84100002038
:1026C00030BD84F83E00FAE784F83F00F7E784F86D
:1026D0004000F4E7002C01407047704770B50400DB
:1026E00004D094F84100002510B106E0012070BD2F
:1026F00084F84050204600F023F8242084F841005C
:102700002068C16821F40051C160204600F0D8FE65
:102710002068016921F4904101612068416921F03C
:102720002A0141612068C16841F40051C1606564BB
:10273000202084F8410084F842006563002070BDC9
:102740007047FEE701684A69D24352050FD46FF41F
:1027500080624A61002140F8301F20224273817359
:10276000026942F0040202610173012070470020F7
:1027700070470000F8B50446C06A1E460D4617466D
:10278000082807D0012805D010F5803F02D0206B23
:10279000122804D12068016841F480710160134659
:1027A00000224FF001112046009600F0B1F840B130
:1027B00020680068C00502D54FF400702064032033
:1027C000F8BD2069B0F5804F0ED00620216800EAE0
:1027D000D51040F0F000086133463A460B492046D8
:1027E00000F0DEF878B902E005F0FE0000E0E8B2A3
:1027F00021680861054933463A46891F204600F0A2
:10280000CFF80028DCD00120F8BD0000080001004E
:102810002DE9F843044600680D46DDE90897016894
:102820009846164641F4807101604B4600224FF0F5
:1028300001112046009700F06BF848B1206800684D
:10284000C00502D54FF4007020640320BDE8F88372
:10285000216805F0FE0008613B464A4615492046BE
:1028600000F09EF888B920684169806900903A4676
:102870004946204600F0F2F848B1206C042804D103
:102880002068016841F4007101600120DEE7F5B2C3
:10289000B8F1010F09D02168300A08613A4649466B
:1028A000204600F0DBF80028E7D120680561002011
:1028B000CCE700000200010070B516460D46044644
:1028C0001EE02046FFF73EFF08B1012070BD681CE6
:1028D00016D0FEF74DFE801BA84200D885B92068AF
:1028E0004069C04340070BD5002044F8300F202139
:1028F0006173A073216941F0200121612073E4E735
:1029000020684069C0434007DBD4002070BD000050
:102910002DE9F047984617460D460446C1F3074691
:10292000DDF820902AE000BFB8F1FF3F26D0FEF787
:102930001FFEA0EB0901414502D8B8F1000F1DD1DF
:102940002068012E16D0806925EA00000004000CE2
:1029500012D00020B84211D1002044F8300F2021BD
:102960006173A073216941F020012161207301206E
:10297000BDE8F0874069E7E70120EBE72068012E1A
:102980000AD0806925EA00000004000C06D000206F
:10299000B842C9D00020EBE74069F3E70120F7E730
:1029A0002DE9F047984616460D4604464FF00009BB
:1029B0004FF0200AC1F3074723E020684069C04375
:1029C000400515D42068016841F400710160216858
:1029D0006FF480604861C4F8309084F83DA084F8BA
:1029E0003E90216C41F00401216484F83C9021E088
:1029F000701C06D0FEF7BCFDA0EB0800B04203D867
:102A000016B1012F1FD021E02068012F15D0806959
:102A100025EA00000004000C18D000BF44F8309FE5
:102A200084F80DA084F80E90216941F02001216105
:102A300084F80C900120BDE8F087406925EA000089
:102A40000004000CEAD12068406901E02068806938
:102A500025EA00000004000CAFD1ECE770B5164683
:102A60000D4604461EE02046FFF76CFE08B101202B
:102A700070BD681C16D0FEF77BFD801BA84200D8F5
:102A800085B920684069C04300060BD5002044F892
:102A9000300F20216173A073216941F02001216171
:102AA0002073E4E720684069C0430006DBD40020BF
:102AB00070BD00002DE9F0474C4C86B0A06940F095
:102AC0000400A061A06900F004000490A06940F037
:102AD0000400A061A06900F004000490A06940F423
:102AE0008040A061A069022700F480400490601536
:102AF000CDE90007DFF8F8A04FF003086946CDF8EC
:102B00000C805046FEF73AFC00262015CDE9000661
:102B1000694650460296FEF731FC0122002125202D
:102B2000FEF7DEFF2520FEF7CDFF324D4FF4E139F1
:102B30000C2300224946284601F089FE286820F02F
:102B400040002860286820F02000286029480C30C8
:102B5000016841F020010160A06940F00400A0611B
:102B6000A06900F004000490A06940F00400A06196
:102B7000A06900F004000490E06940F40030E061D6
:102B8000E069694600F4003004900420CDE90007B4
:102B9000CDF80C805046FEF7F1FB0820CDE9000689
:102BA000694650460296FEF7E9FB022200212620E4
:102BB000FEF796FF2620FEF785FF0F4C0C23002220
:102BC0004946204601F043FE206820F04000206086
:102BD000206820F02000206007480C30016841F098
:102BE0002001016006B0BDE8F0870000001002403F
:102BF0000008014000380140004400401FB500209B
:102C00000190029003904FF4804000906946024882
:102C1000FEF7B4FB1FBD0000000C014000F032B90C
:102C200000F046B900F08EB900F0B6B900F0F3B983
:102C300000F00ABA10B506484FF4005309B100225B
:102C400000E001221946FEF78EFC002010BD0000B6
:102C50000010014070B586B0002410480094019423
:102C600002940394816941F010018161806901221D
:102C700000F010000A4E5503049029463046FEF736
:102C800072FC01200095CDE9010402200390694601
:102C90003046FEF773FB06B0002070BD0010024006
:102CA0000010014001480068FEF7C2B8EC030020A4
:102CB00070B5104C05462068FEF700FB4FF4FA7122
:102CC0002068FEF75DFA10B14FF0FF3070BD20684C
:102CD000FEF798F9FDF709FC0022074BFDF785FB8D
:102CE0000022064BFDF70FFBFDF770FC286000206B
:102CF00070BD0000EC03002000FEAF400000594012
:102D00003EB5002411480094019402940E49846059
:102D1000016004730475012505614FF4602144606E
:102D2000C161FEF773F908B1FEF780F80320CDE921
:102D30000005694602940548FEF7E6F8002801D030
:102D4000FEF774F83EBD0000002401403C2F002037
:102D50000F4800B5816985B041F02001816181692A
:102D600001F020010491816941F0040181618069D1
:102D7000112100F0040004900220CDE9000101219E
:102D8000CDE9021069460348FEF7F8FA05B000BD28
:102D900000100240000801400D4810B50B490160C9
:102DA0000C49416000214FF480428160C0E9031268
:102DB00041618161C1610162FEF7E0FB002803D03F
:102DC000BDE81040FEF732B810BD000000540040CE
:102DD000E82E0020A086010010B592B000240F94C8
:102DE0001C2108A81094FDF7BCF920216846FDF7C6
:102DF000B8F92248204901604721C0E9011440F296
:102E0000E731C0E903148021C0E90541FFF79BFBCE
:102E100008B1FEF70BF80F940FA918481094FFF7AC
:102E20009BF908B1FEF702F8602008904FF4FA70A1
:102E3000CDE909040B940C940D94002208A90F48C5
:102E40000E94FFF71AFB08B1FDF7F0FF00944FF462
:102E50000050CDE904400294019403946946074868
:102E60000794FFF74FF908B1FDF7E0FF0348FFF7BC
:102E7000DDFA12B010BD0000002C014064040020F7
:102E8000FEE7FEE710B5A0B0002480216846FDF7FC
:102E900068F90021204600F011F98021684600F011
:102EA00041F9641CE4B2082CF3D320B010BD00003B
:102EB00010B50224202000F021F9204600F01EF970
:102EC0001F4804703F24A82000F018F9204600F0A5
:102ED00015F90024D32000F011F9204600F00EF976
:102EE000402000F00BF9A12000F008F9C82000F004
:102EF00005F90021084600F0CBF87F24812000F07E
:102F0000FDF8204600F0FAF8A42000F0F7F8A6201B
:102F100000F0F4F8D52000F0F1F8802000F0EEF891
:102F20008D2000F0EBF8142000F0E8F800210120DB
:102F300000F0AEF8BDE81040AF2000F0DFB80000B0
:102F4000D40300202DE9F0479246C2060025160E54
:102F500099460C4607291DD80F281BD804F10108F3
:102F600016E03146204600F0A9F80AEB4510074666
:102F7000102100F0D7F808F0FF00314600F09EF86D
:102F800007F11000102100F0CDF81036F6B26D1CDC
:102F90004D45E6DBBDE8F087F0B589B00024074673
:102FA00020466D4604AE002A08DA4FF02D038DF856
:102FB00000304FF00104C2F1000214E006D14FF0DE
:102FC00030008DF800004FF001041AE04FF00A0CB9
:102FD00092FBFCF30CFB132392FBFCF203F1300396
:102FE000335400F10100002AF0D108E006EB0002A2
:102FF000A0F1010012F8012C2A5504F10104002867
:10300000F4D14FF0000028552A46384600F003F866
:1030100009B02046F0BD2DE9F04117460E460446A2
:1030200000250BE03146204600F00EF8641CE4B2A7
:103030000F2C02D90024B61CF6B26D1C7A5D002A52
:10304000F0D12846BDE8F08170B51646C206150ECF
:103050000C46072918D80F2816D82946204600F014
:103060002DF80A48082100EB0610064600F05AF831
:10307000641CE0B2294600F021F806F10800BDE822
:103080007040082100F04EB870BD0000B05D00082F
:1030900070B50C46050001D0012D0ED10CB1012CEC
:1030A0000BD1DA2000F02AF8280100EB4410BDE82B
:1030B0007040801CC0B200F021B870BD70B50E4DDC
:1030C0000C462978022905D1072803D8B030C0B2B0
:1030D00000F014F8287802280CD17F2C0AD804F0CC
:1030E0000F0000F00BF8102000EB1410BDE870404A
:1030F00000F004B870BD0000D40300201CB500210E
:103100008DF804108DF805004FF4FA700090044813
:10311000022301AA78214068FEF7F4FA1CBD0000E2
:10312000D40300200EB54FF4FA728DE8070004486E
:103130000123402278214068FEF77AFB0EBD000093
:10314000D4030020010004484FF00001006801D0C2
:10315000FFF73CBAFFF788BADC03002070477047DE
:1031600010B5FEF72BFC04484078002803D0BDE8DA
:10317000104000F003B810BD3800002070B51B4CA3
:103180006068012220B16068401E606000D122703A
:10319000174B002101EB410003EB800045684DB166
:1031A00045686D1E456005D142700578012D01D13D
:1031B00085684560491CC9B20429EBD3A068401C4E
:1031C000A060A0686FF000410025884200D1A56092
:1031D00001F03CFBA078401CC0B2A0700A2804D3C8
:1031E000A570BDE8704001F030BB70BD3800002014
:1031F000600E002030B58FB028216846FCF7B1FF83
:1032000014210AA8FCF7ADFF01210804CDE9001044
:103210000024029402250491CDE907504FF4E010F8
:1032200009906846FEF7DCFD08B172B6FEE70F2094
:10323000CDE90A054FF48060CDE90C4002210AA8CF
:103240000E94FEF7D1FC002801D072B6FEE70FB055
:1032500030BD704770B54FF080442069E16810F0D0
:10326000020F204D01F0020108D039B14FF6FD7078
:103270002061E1680140E160E86880472069E16819
:1032800010F0040F01F0040108D039B14FF6FB70C3
:103290002061E1680140E160286980472069E168B8
:1032A00010F0080F01F0080108D039B14FF6F7709F
:1032B0002061E1680140E160686980472069E16858
:1032C00010F0100F01F010010BD0002909D04FF6BB
:1032D000EF702061E1680140E160A869BDE87040DD
:1032E000004770BD380000200148FEF7ECBF000029
:1032F000AC040020F0B50268164B174C174D4FF088
:103300008047984205D0B84203D0A04201D0A842DD
:1033100003D122F070064A683243984205D0B84281
:1033200003D0A04201D0A84203D122F44074CA685D
:1033300022434C6922F08002224302608A68C26202
:103340000A688262984201D10969016301214161E1
:10335000F0BD0000002C01400004004000080040C7
:1033600010B501F01F030121046A99408C430462E7
:10337000016A9A401143016210BD000030B5036A32
:10338000026A22F0010202624268846924F0730535
:103390000C682C4323F002058B682B430A4DA8428E
:1033A0000BD123F00805CB6822F440722B434D6902
:1033B00023F0040315438A692A4342608461496803
:1033C0004163036230BD0000002C014030B5026A49
:1033D000036A23F010030362436884690D6824F4D0
:1033E000E64444EA05248D6822F0200242EA0512F0
:1033F0000B4DA8420ED1CD6822F0800242EA0512A0
:103400004D6923F4406343EA85038D6922F040024D
:1034100043EA85034360846149688163026230BD89
:10342000002C014030B5036A026A22F48072026205
:103430004268C46923F4007324F073050C682C43BC
:103440008D6843EA05230C4DA8420ED1CD6823F4C4
:10345000006343EA05234D6922F4405242EA051213
:103460008D6923F4806342EA05124260C4614968B1
:10347000C163036230BD0000002C014030B5046A16
:10348000026A22F4805202624268C3690D6823F422
:10349000E64343EA05238D6824F4005444EA0534E6
:1034A000064DA84204D14D6922F4804242EA8512B9
:1034B0004260C36149680164046230BD002C014070
:1034C00070B5044600680169E26821F44051114377
:1034D00001612169A0680843616908432168CA68DD
:1034E00041F20C639A430243CA6020684169A269B1
:1034F00021F44071114341611E492068884202D184
:10350000FEF738FC01E0FEF725FC00EBC00101EB03
:103510000012606864218000B2FBF0F3B3FBF1F3AA
:103520006FF018067343B2FBF0F5B2FBF0F605EB53
:103530008305322303EB0515B5FBF1F5B6FBF1F678
:1035400005F0F00505EB0615B2FBF0F6B2FBF0F066
:10355000B0FBF1F06FF01802504306EB800003EB74
:103560000010B0FBF1F0216800F00F0028448860E3
:1035700070BD000000380140014800F009B80000AB
:10358000900E0020014800F003B80000BC1E00208F
:103590002DE9F041044600680568C7684169A9063D
:1035A0004FF0000615D54068E28AA168C0B2885481
:1035B000E18A491C8AB2E282E1898A4200D3E6822A
:1035C000628B8A4202D2618B491C6183616A01B1BC
:1035D0008847280616D5380614D5A08A50B301208E
:1035E00084F82800618A6068405C21684860608ACD
:1035F000401C80B26082A189884200D36682A08A82
:10360000401EA082680613D5780611D5A08AE0B1C5
:10361000618A6068405C21684860608A401C80B2B2
:103620006082A189884200D36682A08A401EA0825F
:10363000BDE8F0812068C16821F08001C160206888
:10364000C16841F04001C160DCE72068C16821F039
:103650004001C160206A00B1804784F82860E7E734
:1036600078B5002325E0012484F31088848AADF81E
:103670000040002484F310888489BDF80050AC42D7
:103680001FD9CC5C068A4568AC55012484F31088A8
:10369000048A641CA4B204828589AC4201D300244C
:1036A0000482848A641C8482002484F310885B1C56
:1036B0009BB29342D7D30068C16841F08001C160DA
:1036C00078BDBDF80050AC42CDD10468E5682D0648
:1036D000C9D4E56845F08005E560C4E71949184894
:1036E0004FF40062086001F12C00486000F50060B2
:1036F00088608A81CA81002008824882C882088343
:1037000048838882C8610862486281F828000F49AE
:103710000D4B0B6001F12C034B6001F62C038B6009
:103720008A81CA8108824882C88208834883888245
:10373000074AC861C1E9080281F828007047000003
:1037400000380140900E002000440040BC1E0020C4
:103750006D0D0008FEE700000FB4054B10B503A97E
:10376000044A029800F08EF910BC5DF814FB0000CA
:10377000A14B0008F00300200FB4084B10B504A9BA
:1037800002AA039800F07EF9044602A9002000F086
:10379000FCFC204610BC5DF814FB00008B410008C7
:1037A000490050EAC12018BF04204A0D18BF40F05C
:1037B000010040F2FF72B2EB515F08BF40F002001F
:1037C000012808BF052070470907090E002804DBFF
:1037D00000F1E02080F80014704700F00F0000F1C5
:1037E000E02080F8141D70472DE9F0414F1E00EBDA
:1037F000C7010446D1E9000115461E4637F006020E
:103800000DD02A463346FCF77EFD7F1E04EBC7032E
:10381000D3E90023FCF7D0FC37F00602F1D1022FE8
:1038200025D0042F13D0062F18BFBDE8F0812A46FB
:103830003346FCF768FDD4E90A23FCF7BDFC2A46B1
:103840003346FCF760FDD4E90823FCF7B5FC2A46B3
:103850003346FCF758FDD4E90623FCF7ADFC2A46B5
:103860003346FCF750FDD4E90423FCF7A5FC2A46B7
:103870003346FCF748FDD4E90223FCF79DFC2A46B9
:103880003346FCF740FDD4E90023BDE8F041FCF7E6
:1038900093BC00000022134610460149FCF7A5BD69
:1038A0000000F03FFCF788BC00221346104611468A
:1038B000FCF79BBD40F2013200204FF0E041FCF7E5
:1038C0009DBF0000024A00201107FCF797BF0000CF
:1038D00001FDFFFF02E008C8121F08C1002AFAD14B
:1038E00070477047002001E001C1121F002AFBD180
:1038F000704700000149086070470000FC03002089
:103900002DE9FF5F82B00021DDE90430020DDDF812
:1039100040B0034318D044F61050A2F2FF324243A5
:103920001514119801281FD0A5EB0B00401C5FEA6D
:10393000000A4FF000064E4FDFF83891B04650466F
:1039400015D5CAF1000413E0119801244AA30128F7
:1039500001D16FEA0B010298119AC0E90031C0E968
:10396000024206B0BDE8F09FCBF10000DFE704465D
:103970000021404A491842EB0450CDE9001012E002
:10398000E00707D032463B4640464946FCF7BBFCC1
:103990008046894632463B4610461946FCF7B3FC42
:1039A00006460F466410002CEAD1DDE90401DDE98A
:1039B0000023BAF1000F06DAFCF7A5FC42464B469D
:1039C000FCF7A1FC05E0FCF710FD42464B46FCF776
:1039D0000CFD04460E460022284BFCF7DFFD03D801
:1039E0004FF0FF30014607E00022254B20463146CC
:1039F000FCF7E2FBFCF719FF102409E0002C0ADBBE
:103A00000A220023FCF714FE039B30321A55641E71
:103A100050EA0102F2D1641C039AC4F11103144468
:103A2000119A012A03D0012208430DD10AE008436C
:103A300004D000204FF0110B119072E7A3EB0B059F
:103A40006D1E0DE05B4504DD4FF0000205F1010540
:103A500004E003DA4FF00002A5F10105002AECD0E2
:103A600002981199C0E90231C0E9004579E70000E8
:103A7000000014400000F03F300000000000F04360
:103A80000000E03F2DE9FF4F95B09A468846064674
:103A90000025EEE1252877D100242746F94A0121A7
:103AA000039400E0044316F8013F203B01FA03F0C1
:103AB0001042F7D130782A2811D06FF02F033078D8
:103AC000A0F13002092A16D8039A44F0020402EB4E
:103AD000820203EB42021044761C0390EFE758F891
:103AE000042B0392002A03DA504244F4005403905A
:103AF00044F00204761C30782E2816D116F8010FF7
:103B000044F004042A280DD06FF02F023078A0F181
:103B10003003092B09D807EB870302EB4303C718CF
:103B2000761CF3E758F8047B761C30786C280FD0AD
:103B300006DC4C2817D068280DD06A2814D104E080
:103B4000742810D07A280FD10DE044F400140AE054
:103B500044F4801401E044F440147278824202D1AB
:103B600004F58014761C761C307866280BD013DCA4
:103B7000582877D009DC002875D04528F6D046288B
:103B8000F4D047281AD193E118E0632835D064288F
:103B900079D0652812D18BE1702873D008DC6728B2
:103BA000F1D069286FD06E280DD06F2806D1ACE017
:103BB00073282CD0752874D0782853D05246179982
:103BC00090476D1C54E1C4F30250022809D0032829
:103BD0000DD0D8F8001004280DD00D6008F10408AD
:103BE00046E1D8F80010EA17C1E90052F6E7D8F824
:103BF00000100D80F2E70D70F0E718F8041B8DF847
:103C0000001000208DF80100EB46012003E058F879
:103C100004BB4FF0FF3061074FF0000102D40DE00C
:103C200009F101018946B9420FDA8145F8DB1BF839
:103C300009100029F4D108E009F101018946814207
:103C4000FADB1BF809100029F6D103985346A0EBC4
:103C5000090721463846179A00F080FA284400EBFD
:103C6000090507E044E008E10DE01BF8010B5246AE
:103C700017999047B9F10109F7D2534621463846C2
:103C8000179AF2E039E00A21C4F302524FF0000B18
:103C90000091022A06D058F8040BC117032A09D054
:103CA0000AE023E008F1070020F00702F2E8020131
:103CB000904605E000B2C117042A01D140B2C117F5
:103CC000002906DA0A460021404261EB02012D225A
:103CD00002E0220504D52B228DF80420012203E006
:103CE000E20701D02022F7E7914657E00A2100E0E1
:103CF00010214FF0000B00910BE010214FF0000B52
:103D000044F004040827009103E008204FF0000B62
:103D10000090C4F30252022A05D058F8040B002187
:103D2000032A08D008E008F1070020F00702F2E8B3
:103D30000201904603E080B2042A00D1C0B24FF0E5
:103D4000000922072AD53278702A07D0DDF800C092
:103D50008CF0100C5CEA0B0C05D00EE040228DF8C4
:103D60000420012208E050EA010306D030238DF838
:103D700004308DF8052002229146009B83F0080351
:103D800053EA0B030AD150EA010201D1620705D5BB
:103D900030228DF804204FF001097F1E3278582A16
:103DA00004D039A20C920CAA02920BE03BA2F9E7D4
:103DB0005B46009AFCF73CFC0C9B9B5C029A521EF3
:103DC0000292137050EA0102F2D1029804A9081A73
:103DD00000F1200B600702D524F4803400E00127B5
:103DE0005F4502DDA7EB0B0000E0002000EB0B01BC
:103DF000009003984944401A0390E00306D45346C8
:103E00002146179A039800F0A9F90544002706E017
:103E100001A85246C05D179990476D1C7F1C4F4505
:103E2000F6DBE0030CD553462146179A039800F0C1
:103E300095F9054404E030205246179990476D1CCF
:103E40000099481E00900029F5DC08E002980299CC
:103E500052460078491C0291179990476D1CBBF19E
:103E60000001ABF1010BF1DC5BE100F065F9054409
:103E7000761C307800287FF40DAE19B02846BDE8D6
:103E8000F08F0000092801003031323334353637E5
:103E90003839616263646566000000003031323396
:103EA0003435363738394142434445460000000036
:103EB000600700D4062708F1070020F00700F0E8AB
:103EC0000223804603F0004C5FEA0C0001D097A06B
:103ED00009E0200501D596A005E0E00701D095A0F6
:103EE00001E0AFF24C001390307823F000436528D6
:103EF0000CD006DC452809D046281DD047287FD1A4
:103F00003BE0662818D067287AD136E00021112FCF
:103F100001DB112000E0781CCDE9000104A90CA808
:103F2000FFF7EEFCDDE90D010C9A4FF0000B07F1F5
:103F30000109109200914EE04FF000400097CDE94A
:103F4000011004A90CA8FFF7DBFCDDE90D020C9BB6
:103F50000F994FF0000B91461093009211B9791C04
:103F600000EB0109B7EB090003D4C0F1FF3B07F1F7
:103F70000109A9EB0700019042E0012F00DA0127B7
:103F80000021112F01DD112000E03846CDE90001AC
:103F900004A90CA8FFF7B4FCDDE90D010C9A00910F
:103FA0004FF0000BB946109221070FD4009A4A45F2
:103FB00003DA914601E0A9F10109B9F1010F05DD2C
:103FC000109AA9F10101515C3029F4D0B84202DA0B
:103FD00010F1040F03DA0121CDE9011010E00028EF
:103FE00003DC8344A9EB000102E0411C494500DDEC
:103FF0008946A0EB0B00401C01904FF0004002905E
:10400000200705D40198484502DB4FF0FF300190AE
:1040100000208DF84B0002980DF14B07B0F1004FD6
:1040200025D002200C902B200D90029800280CDA4D
:10403000404202902D200D9007E00A210298FCF7E3
:10404000E1FA3031029007F8011D0C99481E0C90DE
:104050000029F2DC02980028EFD1791E0D98087033
:10406000307800F0200040F0450007F8020D11A85C
:10407000C01BC01D02901398007800B1012000EB16
:104080000901019801EBE071029801440398401A7C
:10409000401E0390E00306D453462146179A039826
:1040A00000F05CF805441398007818B1524617994F
:1040B00090476D1CE00323D553462146179A039879
:1040C00000F04CF805441BE0BBF1000F07DB009843
:1040D000584504DD1098179910F80B0001E0179966
:1040E00030205246904701980BF1010B401E05F11C
:1040F0000105019004D12E205246179990476D1C5E
:10410000B9F10001A9F10109DEDC05E017F8010BA6
:104110005246179990476D1C0299481E029000293B
:10412000F4DC53462146179A03989EE62D000000C2
:104130002B000000200000002DE9F041044600257E
:104140001E461746880404D405E039462020B047AF
:104150006D1C641EF9D52846BDE8F0812DE9F041BB
:10416000044600251E469046C80301D5302700E0CE
:104170002027880404D505E041463846B0476D1C29
:10418000641EF9D52846BDE8F0810A68531C0B600F
:1041900010707047042807D200EB4001054800EB7F
:1041A00081004178012901D0002070470021417031
:1041B00001207047600E002010B5002811D00128A2
:1041C00000D10220012181F31088064C606000209C
:1041D000207080F3108800BF00F026F820780128B6
:1041E000FAD110BD3800002070B54FF0E023002157
:1041F0005D690B4A0B4C1268B2FBF4F49A694443B4
:1042000098699042FCD002D2A2EB000202E0A5EB3A
:104210000006324411440246A142F1D370BD0000B1
:104220001800002040420F00704710B5FDF7CEFB8C
:10423000FEF7E0FFFEF78CFDFEF7CEFDFEF7ACFDCE
:10424000FEF75EFDFEF7DAFC00F0C4FA00F0F6FAC5
:10425000FCF720FCFEF726FDFEF7E2FCFEF7DEFC95
:10426000FEF7F8FC00F004F8BDE8104000F006B8D6
:104270004FF4E131012000F087BC00002DE9F0414E
:104280000026344635464FF4FA774FF47A780EE03C
:104290000A2D0AD90025FEF7C1FC85A203210020C2
:1042A000FEF7C4FC3846FFF787FF062E06D0062E21
:1042B000EED2DFE806F012456D93B6D5FEF7AEFC00
:1042C0007FA203210020FEF7B1FC3846FFF774FF00
:1042D000FEF7A4FC0120BDE8F08140F6B830FFF7FE
:1042E0006BFF7AA0FCF764FD79A0FCF761FD642107
:1042F00079A0FCF76FFD012815D0FEF78FFCC820D0
:10430000FFF75AFF75A0FFF727FA07237A4A032120
:104310000120FEF787FC641CE4B2142CB8D90024F9
:104320006D1CEDB2B4E775A0FFF716FAFEF776FC48
:1043300003210523784A0846FEF774FC01266BE04A
:1043400076A0FCF735FD642163A0FCF743FD01284E
:104350000ED0FEF763FCC820FFF72EFF72A0FFF718
:10436000FBF90823764A03210020FEF75BFC30E0CE
:1043700074A0FFF7F1F90823784A03210020FEF723
:1043800051FC022614E000246D1CEDB226467FE7A6
:1043900041F2883272A176A0FCF74AFC78B178A08D
:1043A000FFF7DAF97BA203210020FEF73FFC03268A
:1043B00000244046FFF700FFFEF730FC68E7FEF7F9
:1043C0002DFCC820FFF7F8FE76A0FFF7C5F97AA20A
:1043D0005DE0641CE4B2142CD5D859E77AA0FCF750
:1043E000E7FC39463CA0FCF7F5FC012809D0FEF7B4
:1043F00015FCC820FFF7E0FE7FA0FFF7ADF986A20D
:1044000045E0FEF70BFC88A0FFF7A6F98EA203217A
:104410000020FEF70BFC042600244046FFF7CCFEEC
:1044200036E78CA0FCF7C4FC39462BA0FCF7D2FC85
:10443000012809D0FEF7F2FBC820FFF7BDFE8FA0D0
:10444000FFF78AF994A222E0FEF7E8FB97A0FFF7B6
:1044500083F99DA203210020FEF7E8FB0526DBE798
:104460009D4A9EA1A248FFF787F9A148FCF7A0FC4E
:10447000394619A0FCF7AEFC01280DD0FEF7CEFBA3
:10448000C820FFF799FE9BA0FFF766F9A0A20321C1
:104490000020FEF7CBFB9CE7FEF7C0FBA2A0FFF7D6
:1044A0005BF9A8A203210020FEF7C0FB0626B3E7B4
:1044B00053797320496E6974206572726F720000BF
:1044C00053797320496E6974206F6B00415400006A
:1044D00041544530000000004F4B00000D0A205BA6
:1044E000315D20C3BBD3D0D5D2B5BD455350383292
:1044F0003636C4A3BFE90000F40000200D0A205B9B
:10450000315D20D5D2B5BDC1CB455350383236369A
:10451000C4A3BFE9000000005400002041542B4315
:10452000574D4F44453D31000D0A205B315D20B9A8
:10453000A4D7F7C4A3CABDC9E8D6C3CAA7B0DC00D4
:10454000D40200200D0A205B325D20B9A4D7F7C445
:10455000A3CABDC9E8D6C3B3C9B9A600D401002017
:1045600061313733323836353532343500000000AA
:1045700054656E64615F4537414130300000000092
:104580000D0A205B335D20BCD3C8EB57494649B3C5
:10459000C9B9A6004A6F696E2077696669206F6B9A
:1045A000000000000D0A205B335D20BCD3C8EB5730
:1045B000494649CAA7B0DC004A6F696E2077696630
:1045C00069206572726F720041542B4D51545455DD
:1045D0005345524346473D302C312C223132332251
:1045E0002C2261646D696E222C2261646D696E22D9
:1045F0002C302C302C2222000D0A205B345D204D03
:10460000515454B9A4D7F7C4A3CABDC9E8D6C3CA84
:10461000A7B0DCA3A10000004D51545420534554D1
:104620002066616C736500000D0A205B345D204DCF
:10463000515454B9A4D7F7C4A3CABDC9E8D6C3B36B
:10464000C9B9A6A3A10000004D51545420534554AC
:10465000204F4B0041542B4D515454434F4E4E3D2F
:10466000302C2262726F6B65722E656D71782E69C7
:104670006F222C313838332C300000000D0A205BBB
:10468000355D204D515454B7FECEF1C6F7C1ACBDD7
:10469000D3CAA7B0DCA3A1004D51545420436F6E80
:1046A0006E6563742066616C736500000D0A205BA3
:1046B000355D204D515454B7FECEF1C6F7C1ACBDA7
:1046C000D3B3C9B9A6A3A1004D51545420436F6E72
:1046D0006E656374206F6B002200002041542B4DE7
:1046E0005154545355423D302C222573222C300016
:1046F000F40C00200D0A205B365D204D515454D639
:10470000F7CCE2B6A9D4C4CAA7B0DCA3A1000000CC
:104710004D515454207375627363726962652066EB
:10472000616C7365000000000D0A205B365D204D52
:10473000515454D6F7CCE2B6A9D4C4B3C9B9A6A390
:10474000A10000004D515454207375627363726967
:104750006265206F6B00000000B593B04821684689
:10476000FBF7FFFC18484FF08042C16941F001019E
:10477000C161C069164900F0010012901348006839
:104780004008B0FBF1F0401E80B2CDE900204FF0B0
:10479000FF310020CDE903100290059080200690A3
:1047A0006846FDF70DFD08B1FCF740FB0222002131
:1047B0001C20FDF795F91C20FDF784F96846FDF7EC
:1047C0002DFD13B000BD00000010024018000020B5
:1047D00040420F0030B40021144A084601EB410466
:1047E00002EB840358609860587002F82400491C5A
:1047F000C9B20429F2D30E494FF47A720968B1FBA9
:10480000F2F1491EB1F1807F09D24FF0E0225161EF
:10481000084BF02183F8141D9061072010610649B0
:104820000120487030BCFFF797BF0000600E0020E9
:10483000180000200FE000E03800002010B5FEF75F
:104840004DFFBDE81040FEF735B97047704700B521
:1048500093B0CDE9000100200290CDE90302CDE93B
:10486000053007906846FDF739FF002801D0FCF7B6
:10487000DDFA13B000BD000010B5042805D30C4AC2
:104880000CA114A0FEF768FFFEE7012282F3108856
:10489000184A00EB400302EB830041608160002175
:1048A0004170012002F8230081F3108810BD000040
:1048B0008F5D00082E2E5C447269766572735C42CF
:1048C00053505C7372635C6273705F74696D657280
:1048D0002E6300004572726F723A2066696C652023
:1048E00025732C2066756E6374696F6E202573289E
:1048F000290D0A00600E002010B54FF080435C6A5D
:1049000001282144164C0ED0022815D003281DD0B2
:1049100004281AD1A26119644FF6EF701861D868A3
:1049200040F0100010E0E26059634FF6FD7018612E
:10493000D86840F0020007E0226199634FF6FB70EF
:104940001861D86840F00400D86010BD6261D96376
:104950004FF6F7701861D86840F00800F4E70000DF
:104960003800002010B5042805D30B4A0BA113A072
:10497000FEF7F2FEFEE7012282F31088174A00EBF1
:10498000400302EB8300416081600021417002F826
:10499000231081F3108810BD805D00082E2E5C442A
:1049A0007269766572735C4253505C7372635C62C9
:1049B00073705F74696D65722E6300004572726F6B
:1049C000723A2066696C652025732C2066756E63CB
:1049D00074696F6E20257328290D0A00600E00206F
:1049E00070B504460F4E19E0A0892568C0050AD4A9
:1049F000A06820B1FFF7F4FFA089C00503D42069A7
:104A000008B171688847A089800503D4206A08B17D
:104A1000716888477168204688472C46002CE3D18E
:104A200070BD0000E003002070B50D46846800E012
:104A300024682CB12946206A00F046F80028F7D1F6
:104A4000204670BD054910B5096828208847040034
:104A500002D02821FBF785FB204610BDE003002093
:104A600000221146AFF300802DE9F04190460E463A
:104A70000446FFF7E7FF134F05004FF00000B86052
:104A800015D0204601F02EF90146284600F0E4FB3F
:104A900004000FD0B8F1000F10D0204601F022F929
:104AA0000446007850B12846FFF79AFFBC6000200A
:104AB000BDE8F0812846FFF793FFF8E706B13460C0
:104AC0002846F5E7E003002070B505000C4601D04C
:104AD0000CB108E009B1012070BD002070BD0028B4
:104AE000FCD0641C6D1C2878FBF72EFB0646207852
:104AF000FBF72AFB86422878F1D0FBF725FB054619
:104B00002078FBF721FB281A70BD10B50C46FBF787
:104B1000B1FF00281FD00246012080F31088518B7E
:104B2000002080F31088002915D0138B9168C95C90
:104B30002170012181F31088118B491C89B21183E6
:104B4000D389994200D31083508B401E508300209C
:104B500080F31088012010BD70B515460E46FBF796
:104B600089FF040009D0E06900B180472A46314638
:104B70002046BDE87040FEF773BD70BD13B501223D
:104B800001A9FFF7E9FF1CBD10B5FBF765FF002881
:104B900005D00C23BDE810400022FFF758BE10BD21
:104BA00010B50446C1B20020FFF7E8FF204610BD53
:104BB00010B5002821D0114B0022001F196803E016
:104BC000814203D80A4649680029F9D152B11368D5
:104BD000841A9C4204D1006818441060104602E018
:104BE000506000E0186039B102680B1A934203D19B
:104BF0000B681A4402604968416010BDF40300204C
:104C00001FB5FFF712FB4FF4FA610020FFF734FEE7
:104C1000FCF732F80020FFF7BDFA0028F8D026494B
:104C2000081DFBF753FF28B124A0FEF795FDFBF705
:104C300031FFEDE720480830FEF73AF818B124A01C
:104C4000FEF78AFDE4E7002128A20846FDF7EEFF03
:104C5000194C022100206268FDF7E6FFC0B2252250
:104C60000221FDF7E5FF022109202268FDF7DCFFA4
:104C7000252202210B20FDF7DBFF20A204210020CA
:104C8000FDF7D4FFA068FBF73DFC0246062100209B
:104C9000FDF7CAFFA068FBF76DFCCDE90201606873
:104CA00000901A4A1A491B482368FEF765FD194807
:104CB000FCF77EF8ACE70000000000200A0D6468F5
:104CC000743131207265616420657272210A0D00B1
:104CD0000A0D6C696768742073656E736F72207259
:104CE00065616420657272210A0D000048756D6966
:104CF000646974792054656D700000004C696768C0
:104D0000742053656E736F723A0000002D0000200E
:104D10004866000800040020F0B50B30154D20F067
:104D200007010024144A0FE003688B420BD38B4227
:104D300005D95E1A43184768C3E9006700E0436875
:104D4000136002C004E0021D10680028ECD1204668
:104D5000002802D1286808B10020F0BD064A0748A3
:104D60001060074A121A22F00702C0E9002401204D
:104D70002860D7E7F8030020F4030020742F0020F8
:104D8000703B002070B5144602460D46002000E03E
:104D9000421C641E05D429461046FBF7EDF9002895
:104DA000F6D1401C70BD00002DE9F04104460878A2
:104DB0001A4E5B2801D0B1602BE00520E060481C52
:104DC00000F090FF074600785D2806D0FFF73AFE16
:104DD000051EA06002D038460AE0781CBDE8F081CC
:104DE000FFF730FE0028F9D0286045600546601CBA
:104DF00000F078FF0146284600F02EFA00F072FF1E
:104E0000040006D020782C28EAD020785D2802D033
:104E1000B4600020E2E7601CE0E70000E00300204F
:104E20000178A1F13002092A01D811460AE0A1F166
:104E30004102052A01D8373904E0A1F16102052AAF
:104E40003FD857390A0110F8011FA1F13003092B8F
:104E500001D8303A0AE0A1F14103052B01D8373AD5
:104E600004E0A1F16103052B2BD8573A11440A0144
:104E700010F8011FA1F13003092B01D8303A0AE0E4
:104E8000A1F14103052B01D8373A04E0A1F16103F8
:104E9000052B16D8573A114440780901A0F1300289
:104EA000092A01D8303904E0A0F14102052A02D8CC
:104EB000373908447047A0F16102052A01D85739F3
:104EC000F7E70020704700002DE9F34F002583B07D
:104ED0000C4650490120CDE90051029020782E4621
:104EE0002F46A846A9462D2804D100204A49641C13
:104EF000CDE900012078302800D1641C20783138B9
:104F0000082816D814F8010B3038FBF7DDFA824672
:104F10008B460022414B28463146FBF7F4F95246B6
:104F20005B46FBF749F9054620780E4630380928DC
:104F3000E8D920782E2824D16078302841D3392828
:104F40003FD8641C14F8010B3038FBF7BDFA8246D9
:104F50008B460022314B28463146FBF7D4F95246A6
:104F60005B46FBF729F905460E460022294B3846D9
:104F70004146FBF7C2F907462078884630380928B1
:104F8000E0D92078652801D045281AD114F8010FFE
:104F90002B2802D02D2810D000E0641C6FF02F01C8
:104FA0002078A0F13002092A0BD809EB890201EB25
:104FB000420200EB0209641CF2E74FF0FF3002905E
:104FC000EBE7029909FB01F0FBF77EFA3A4643460C
:104FD000FBF7F2F802460B460020104900F096F964
:104FE00007468846DDE900012A463346FBF78BF980
:104FF0003A464346FBF787F9039AC2E90601FBF7F5
:105000009AFA0399486103980321C16005B02046CC
:10501000BDE8F08F0000F03F0000F0BF000024402A
:105020002DE9F041054608782A4E7B2801D0B16071
:1050300033E00620E860481C00F054FE0746007884
:105040007D2813D0FFF7FEFC041EA8600FD0384661
:1050500000F048FE0146204600F03EF800F042FE17
:10506000002804D02169002721622CE0781CBDE8CB
:10507000F081B06011E0401C00F034FE0146204693
:1050800000F0EAF800F02EFE051EF0D028782C285B
:1050900005D028787D281BD0B5600020E7E7FFF712
:1050A000D1FC0028E3D0206044600446681C00F076
:1050B00019FE0146204600F00FF800F013FE00280C
:1050C000D5D021692162276101783A29D3D0D0E770
:1050D000681CCCE7E00300202DE9F0470C460646AB
:1050E000481C227800215A4B222A07D000209C60BD
:1050F000BDE8F087401C5C2A00D1401C0278222ABF
:1051000002D00AB1491CF5D1481C19688847051E10
:10511000EED0601C2C464FF4806788E05C2903D0F9
:1051200004F8011B401C82E000F10108407872285D
:1051300014D006DC622809D0662809D06E2808D170
:105140000AE074280CD0752803D10BE0082000E099
:105150000C2004F8010B68E00A20FAE70D20F8E7BC
:105160000920F6E708F10100FFF75AFE8146A0F595
:105170005C4008F10408B84257D3B9F1000F54D08D
:10518000A9F55840B84217D298F801005C284CD1D4
:1051900098F80200752848D108F10300FFF740FE97
:1051A000A0F55C4108F10608B9423ED2C9F30901F5
:1051B00061F39F2000F580390420B9F1800F02D2FD
:1051C0000120641C2AE0B9F5006F02D20220A41C61
:1051D00006E0B9F5803F02D20320E41C0EE0241D56
:1051E000022813D0032809D004281DD109F0BF01DB
:1051F00041F0800104F8011D4FEA991909F0BF013F
:1052000041F0800104F8011D4FEA991909F0BF012E
:1052100041F0800104F8011D4FEA99190D49095C1C
:1052200041EA090104F8011D044408F10100017874
:10523000222902D000297FF471AF0021217001786A
:10524000222900D1401C0421C6E9031550E70000C3
:10525000E0030020B065000870B50C00054620D0C2
:10526000042223A12046FAF798FFE0B1052222A1EB
:105270002046FAF792FFC8B1042221A12046FAF78E
:105280008CFFB8B12078222819D02D2803D0A0F1A6
:105290003001092919D821462846BDE87040FFF79A
:1052A00013BE002070BD0220E86006E00020E86028
:1052B000601D70BD0120E8606861201D70BD214641
:1052C0002846BDE87040FFF707BF5B2804D07B2865
:1052D00008D00D488460E4E721462846BDE87040C8
:1052E000FFF762BD21462846BDE87040FFF798BE33
:1052F0006E756C6C0000000066616C7365000000E8
:105300007472756500000000E00300202DE9F04D87
:105310001D460C4698B0174621F0004123F000438B
:10532000002814BF4FF0010C4FF0000C0CEB440CA4
:10533000FE4A0CEB02064FEA620C66452BD33E0098
:1053400018BF012606EB45061644F94A964222D3B9
:10535000F84A53EA070C02D0944205D148B918B074
:1053600000201146BDE8F08D002808BF4FF0000C6A
:1053700001D04FF0010C0CEB440212F5001F0AD8CB
:10538000002F14BF4FF0010C4FF0000C0CEB450246
:1053900012F5001F07D918B03A462B462146BDE842
:1053A000F04DFEF77FBA0022DFF88CA3002CB8BFC7
:1053B000534526DADFF884C36345A8BF022220DA0A
:1053C000DFF870C39C451CDCDFF874C30CEB235C76
:1053D000BCF1140F08DDCCF1340627FA06FC0CFAF8
:1053E00006F6BE420DD108E05FB9CCF1140623FAEF
:1053F00006FC0CFA06F69E4203D10CF00102C2F143
:10540000020251EA000C19D1002D17DA002C18BF46
:10541000022A01D0012A07D00220FEF76BFA18B049
:10542000BDE8F04DFEF736BA0220FEF763FAFEF74C
:1054300031FA18B081F00041BDE8F08DB7F1000CF1
:105440006CD1534525D104F1804212F5801201BF81
:1054500000280020B74918B008BFBDE8F08DB54856
:10546000884207DC002DA1BF6046294618B0BDE880
:10547000F08D07E0281E05DA80F0004118B0604684
:10548000BDE8F08DAF497944D1E9000118B0BDE81D
:10549000F08DDFF8A0C2634525D1002D1FDA19B1C8
:1054A000514512D1D8B909E0002840F0EC82A24A57
:1054B000214618B062F31E01BDE8F08D00202146A0
:1054C00018B060F31E01BDE8F08D08DA18B023466D
:1054D000BDE8F04D024600206146FAF786BF18B0DD
:1054E0002146BDE8F08D514518DAB5F1804F0DD059
:1054F000A5F1005CBCF1FF5C10D1B4F1000C0DDB38
:1055000018B06146BDE8F04D00F0F6BB234618B078
:105510000246BDE8F04D1946FAF7F5BE060024F044
:10552000004C3BD1D9B1514533D1002C06DD002DC3
:10553000A1BF0020514618B0BDE8F08D002C01DD60
:10554000002D1BDB002C13DA002D11DB012A4FF09C
:10555000000014BF78497C4918B0BDE8F08D022ADC
:1055600018BF002C0AD0012A08D1002C06DA0AE064
:10557000002CB8BF002D11DA012A04D0002018B089
:105580000146BDE8F08D18B000204FF00041BDE8A5
:10559000F08DA1F14050B0F17F601AD0012000EBF6
:1055A000E47050EA020421D0624C521E4FF0000B0E
:1055B000104304BF4FF0000B644C654883427CDD10
:1055C000644A654893421FDD884217DB002D25DBC6
:1055D00037E0002C00DA4AB1022A0CBF01204FF05C
:1055E000FF3018B0BDE8F04DFAF76EBF0120FEF7AE
:1055F00081F918B0BDE8F04DFEF756B94D4A8A4220
:1056000002DC002D0ADC1CE0814202DA002D18DAEF
:1056100004E0484B994220DD002D12DD0220FEF708
:1056200069F9FEF747F905460E46002253465846EB
:105630002146FAF768FE18B066F31E012846BDE859
:10564000F08D0220FEF756F9FEF73CF90A46214696
:1056500018B062F31E01BDE8F08D002230466146AD
:10566000FAF74BFE80460E466FF00102FBF7C6F8D4
:105670004FF05532394BFAF743FE42463346FAF7BC
:1056800042FE0022364BFAF73BFE82464246334644
:10569000049110461946FAF736FE5246049BFAF773
:1056A00032FE8A4600904FF0C0422E4B40463146B3
:1056B000FAF729FE2C4A2B4B00E027E0CDE9060142
:1056C00051460098FAF71FFE82460191274A284B5F
:1056D00040463146FAF717FE5246019BFAF70DFE97
:1056E00082460B4602460591DDE90601FAF764FDA4
:1056F000DDE90623002688463046FAF7FEFD5246CD
:10570000059BFAF7FDFD024600F07EB90020B1F5D9
:10571000801F07DA352230466146FBF76FF80646F0
:105720006FF0340000EB215024E00000FFFF1F0069
:10573000FFFF0F000000F03F0000F07F000040433B
:1057400001FCFFFFB61100000000F0FF0000F0BFF9
:105750000000E0410000F043FFFFEF3F5555D53F0B
:105760000000E03F4715F73FFE822B6544DF5DF800
:105770000BAE543EA0F2FF300190C1F3130040F095
:105780007F6141F040510291FE498842D8BF00201C
:1057900004DDFD498142C8BF012001DD0D9008E014
:1057A00000200D900198401C01900298A0F58010F7
:1057B00002900299F54878440B910D9900EBC100D5
:1057C000D0E900230F9330460A920B99FAF795FD22
:1057D000CDE90601DDE90A2130460F9BFAF7ECFC22
:1057E00002460B460020EA49FAF7FFFD0591024602
:1057F0000B460090DDE90601FAF785FD1490E548B7
:105800008A464FF0000878440299006812904FF0E1
:10581000005040EA61010D980F9B01EB804000F5BC
:10582000002109910A9A1298FAF767FD32460B9BFC
:10583000FAF766FD42465346FAF765FD06460291C1
:1058400040465146099B129AFAF75DFDDDE90623B1
:10585000FAF756FD3246029BFAF74FFD059B009A78
:10586000FAF751FD0091149A0490534610461946D8
:10587000FAF749FD06460246C7480B460291062143
:105880007844FDF7B1FFCDE90510029B3246104682
:105890001946FAF738FDDDE90532FAF734FD0591CE
:1058A0000646534640461946149AFAF785FC009B73
:1058B000049AFAF728FD3246059BFAF77DFCCDE9FC
:1058C00005104246534610461946FAF71CFD0022C1
:1058D000B24B02910A90FAF76FFCDDE90532FAF754
:1058E0006BFC0E464246AD4B4046FAF706FD029B66
:1058F0000A9AFAF702FDDDE90532FAF701FD4246A0
:1059000002910A90334610465146FAF7FCFCCDE965
:1059100006015346149A02990A98FAF7F4FC8A464B
:1059200002903346424600990498FAF7ECFC53463D
:10593000029AFAF741FC82460B4602460591DDE9E0
:105940000601FAF739FCDDE9062300208846064601
:10595000FAF7D3FC5246059BFAF7D2FC824609912E
:105960004FF060428E4B30464146FAF7CCFC049033
:1059700006918C4A8A4B50460999FAF7C4FC824634
:105980000291894A894B30464146FAF7BCFC52469F
:10599000029BFAF711FC864B7B440D9A03EBC20382
:1059A000D3E90023FAF708FC0E9007910198FAF763
:1059B0008BFD0591DDE9061382460E9A0498FAF7ED
:1059C000FBFB7C4A7A440D9B02EBC303D3E9002323
:1059D00000930292FAF7F0FB5246059BFAF7ECFBB4
:1059E0000026884652463046059BFAF786FC009B07
:1059F000029AFAF782FC069B049AFAF77EFC079B50
:105A00000E9AFAF77DFC024600200B4602903846BB
:105A10002946FAF778FC824601912B46384619460A
:105A2000029AFAF76AFC32464346FAF76CFC524691
:105A3000019BFAF7C1FB07468A4632464346294690
:105A40000298FAF760FC05460E463A465346FAF7C6
:105A5000B3FB594A8846914221DBA8EB020353EA83
:105A6000000210D12A463346FAF747FCCDE904017B
:105A7000524A534B38465146FAF79EFBDDE9042360
:105A8000FAF78CFD21D20220FDF734FFFDF712FF5B
:105A90000A46214618B062F31E01BDE8F08D494B5D
:105AA00028F000429A4210D3474A08EB020353EA17
:105AB00000027FF4C6AD2A463346FAF71EFC3A468A
:105AC0005346FAF76BFD7FF6BCAD0022019228F039
:105AD00000403E493E4A01EB2051824223DA481CF5
